{
  "_format": "hh3-artifact-1",
  "contractName": "GitStreamReceiver",
  "sourceName": "contracts/GitStreamReceiver.sol",
  "abi": [
    {
      "inputs": [
        {
          "internalType": "address",
          "name": "_usdc",
          "type": "address"
        },
        {
          "internalType": "uint256",
          "name": "_minDistributionAmount",
          "type": "uint256"
        }
      ],
      "stateMutability": "nonpayable",
      "type": "constructor"
    },
    {
      "inputs": [],
      "name": "InsufficientBalance",
      "type": "error"
    },
    {
      "inputs": [],
      "name": "NotAuthorizedForwarder",
      "type": "error"
    },
    {
      "inputs": [],
      "name": "NotProjectOwner",
      "type": "error"
    },
    {
      "inputs": [
        {
          "internalType": "address",
          "name": "owner",
          "type": "address"
        }
      ],
      "name": "OwnableInvalidOwner",
      "type": "error"
    },
    {
      "inputs": [
        {
          "internalType": "address",
          "name": "account",
          "type": "address"
        }
      ],
      "name": "OwnableUnauthorizedAccount",
      "type": "error"
    },
    {
      "inputs": [],
      "name": "ProjectAlreadyExists",
      "type": "error"
    },
    {
      "inputs": [],
      "name": "ProjectNotActive",
      "type": "error"
    },
    {
      "inputs": [],
      "name": "ReentrancyGuardReentrantCall",
      "type": "error"
    },
    {
      "inputs": [
        {
          "internalType": "address",
          "name": "token",
          "type": "address"
        }
      ],
      "name": "SafeERC20FailedOperation",
      "type": "error"
    },
    {
      "inputs": [],
      "name": "ZeroAddress",
      "type": "error"
    },
    {
      "inputs": [],
      "name": "ZeroAmount",
      "type": "error"
    },
    {
      "anonymous": false,
      "inputs": [
        {
          "indexed": true,
          "internalType": "bytes32",
          "name": "projectId",
          "type": "bytes32"
        },
        {
          "indexed": true,
          "internalType": "address",
          "name": "recipient",
          "type": "address"
        },
        {
          "indexed": false,
          "internalType": "uint256",
          "name": "amount",
          "type": "uint256"
        }
      ],
      "name": "FundsForwarded",
      "type": "event"
    },
    {
      "anonymous": false,
      "inputs": [
        {
          "indexed": true,
          "internalType": "address",
          "name": "previousOwner",
          "type": "address"
        },
        {
          "indexed": true,
          "internalType": "address",
          "name": "newOwner",
          "type": "address"
        }
      ],
      "name": "OwnershipTransferred",
      "type": "event"
    },
    {
      "anonymous": false,
      "inputs": [
        {
          "indexed": true,
          "internalType": "bytes32",
          "name": "projectId",
          "type": "bytes32"
        }
      ],
      "name": "ProjectDeactivated",
      "type": "event"
    },
    {
      "anonymous": false,
      "inputs": [
        {
          "indexed": true,
          "internalType": "bytes32",
          "name": "projectId",
          "type": "bytes32"
        },
        {
          "indexed": false,
          "internalType": "string",
          "name": "repoUrl",
          "type": "string"
        },
        {
          "indexed": true,
          "internalType": "address",
          "name": "owner",
          "type": "address"
        }
      ],
      "name": "ProjectRegistered",
      "type": "event"
    },
    {
      "anonymous": false,
      "inputs": [
        {
          "indexed": true,
          "internalType": "bytes32",
          "name": "projectId",
          "type": "bytes32"
        },
        {
          "indexed": true,
          "internalType": "address",
          "name": "token",
          "type": "address"
        },
        {
          "indexed": false,
          "internalType": "uint256",
          "name": "amount",
          "type": "uint256"
        },
        {
          "indexed": true,
          "internalType": "address",
          "name": "sender",
          "type": "address"
        }
      ],
      "name": "RevenueReceived",
      "type": "event"
    },
    {
      "inputs": [
        {
          "internalType": "address",
          "name": "",
          "type": "address"
        }
      ],
      "name": "authorizedForwarders",
      "outputs": [
        {
          "internalType": "bool",
          "name": "",
          "type": "bool"
        }
      ],
      "stateMutability": "view",
      "type": "function"
    },
    {
      "inputs": [
        {
          "internalType": "bytes32",
          "name": "projectId",
          "type": "bytes32"
        }
      ],
      "name": "deactivateProject",
      "outputs": [],
      "stateMutability": "nonpayable",
      "type": "function"
    },
    {
      "inputs": [
        {
          "internalType": "address",
          "name": "token",
          "type": "address"
        },
        {
          "internalType": "uint256",
          "name": "amount",
          "type": "uint256"
        },
        {
          "internalType": "address",
          "name": "recipient",
          "type": "address"
        }
      ],
      "name": "emergencyWithdraw",
      "outputs": [],
      "stateMutability": "nonpayable",
      "type": "function"
    },
    {
      "inputs": [
        {
          "internalType": "bytes32",
          "name": "projectId",
          "type": "bytes32"
        },
        {
          "internalType": "address",
          "name": "recipient",
          "type": "address"
        },
        {
          "internalType": "uint256",
          "name": "amount",
          "type": "uint256"
        }
      ],
      "name": "forwardFunds",
      "outputs": [],
      "stateMutability": "nonpayable",
      "type": "function"
    },
    {
      "inputs": [
        {
          "internalType": "bytes32",
          "name": "projectId",
          "type": "bytes32"
        }
      ],
      "name": "getProject",
      "outputs": [
        {
          "components": [
            {
              "internalType": "string",
              "name": "repoUrl",
              "type": "string"
            },
            {
              "internalType": "address",
              "name": "owner",
              "type": "address"
            },
            {
              "internalType": "bool",
              "name": "active",
              "type": "bool"
            }
          ],
          "internalType": "struct IGitStreamReceiver.Project",
          "name": "",
          "type": "tuple"
        }
      ],
      "stateMutability": "view",
      "type": "function"
    },
    {
      "inputs": [
        {
          "internalType": "bytes32",
          "name": "projectId",
          "type": "bytes32"
        }
      ],
      "name": "getProjectBalance",
      "outputs": [
        {
          "internalType": "uint256",
          "name": "",
          "type": "uint256"
        }
      ],
      "stateMutability": "view",
      "type": "function"
    },
    {
      "inputs": [
        {
          "internalType": "string",
          "name": "repoUrl",
          "type": "string"
        },
        {
          "internalType": "address",
          "name": "owner",
          "type": "address"
        }
      ],
      "name": "getProjectId",
      "outputs": [
        {
          "internalType": "bytes32",
          "name": "",
          "type": "bytes32"
        }
      ],
      "stateMutability": "pure",
      "type": "function"
    },
    {
      "inputs": [],
      "name": "minDistributionAmount",
      "outputs": [
        {
          "internalType": "uint256",
          "name": "",
          "type": "uint256"
        }
      ],
      "stateMutability": "view",
      "type": "function"
    },
    {
      "inputs": [],
      "name": "owner",
      "outputs": [
        {
          "internalType": "address",
          "name": "",
          "type": "address"
        }
      ],
      "stateMutability": "view",
      "type": "function"
    },
    {
      "inputs": [
        {
          "internalType": "bytes32",
          "name": "",
          "type": "bytes32"
        }
      ],
      "name": "projectBalances",
      "outputs": [
        {
          "internalType": "uint256",
          "name": "",
          "type": "uint256"
        }
      ],
      "stateMutability": "view",
      "type": "function"
    },
    {
      "inputs": [
        {
          "internalType": "bytes32",
          "name": "",
          "type": "bytes32"
        }
      ],
      "name": "projects",
      "outputs": [
        {
          "internalType": "string",
          "name": "repoUrl",
          "type": "string"
        },
        {
          "internalType": "address",
          "name": "owner",
          "type": "address"
        },
        {
          "internalType": "bool",
          "name": "active",
          "type": "bool"
        }
      ],
      "stateMutability": "view",
      "type": "function"
    },
    {
      "inputs": [
        {
          "internalType": "bytes32",
          "name": "projectId",
          "type": "bytes32"
        }
      ],
      "name": "reactivateProject",
      "outputs": [],
      "stateMutability": "nonpayable",
      "type": "function"
    },
    {
      "inputs": [
        {
          "internalType": "bytes32",
          "name": "projectId",
          "type": "bytes32"
        },
        {
          "internalType": "uint256",
          "name": "amount",
          "type": "uint256"
        }
      ],
      "name": "receiveRevenue",
      "outputs": [],
      "stateMutability": "nonpayable",
      "type": "function"
    },
    {
      "inputs": [
        {
          "internalType": "string",
          "name": "repoUrl",
          "type": "string"
        }
      ],
      "name": "registerProject",
      "outputs": [
        {
          "internalType": "bytes32",
          "name": "",
          "type": "bytes32"
        }
      ],
      "stateMutability": "nonpayable",
      "type": "function"
    },
    {
      "inputs": [],
      "name": "renounceOwnership",
      "outputs": [],
      "stateMutability": "nonpayable",
      "type": "function"
    },
    {
      "inputs": [
        {
          "internalType": "address",
          "name": "forwarder",
          "type": "address"
        },
        {
          "internalType": "bool",
          "name": "authorized",
          "type": "bool"
        }
      ],
      "name": "setAuthorizedForwarder",
      "outputs": [],
      "stateMutability": "nonpayable",
      "type": "function"
    },
    {
      "inputs": [
        {
          "internalType": "uint256",
          "name": "_minDistributionAmount",
          "type": "uint256"
        }
      ],
      "name": "setMinDistributionAmount",
      "outputs": [],
      "stateMutability": "nonpayable",
      "type": "function"
    },
    {
      "inputs": [
        {
          "internalType": "address",
          "name": "newOwner",
          "type": "address"
        }
      ],
      "name": "transferOwnership",
      "outputs": [],
      "stateMutability": "nonpayable",
      "type": "function"
    },
    {
      "inputs": [],
      "name": "usdc",
      "outputs": [
        {
          "internalType": "contract IERC20",
          "name": "",
          "type": "address"
        }
      ],
      "stateMutability": "view",
      "type": "function"
    }
  ],
  "bytecode": "0x60a060405234801561000f575f5ffd5b5060405161130938038061130983398101604081905261002e916100ed565b338061005357604051631e4fbdf760e01b81525f600482015260240160405180910390fd5b61005c8161009e565b50600180556001600160a01b0382166100885760405163d92e233d60e01b815260040160405180910390fd5b6001600160a01b03909116608052600555610124565b5f80546001600160a01b038381166001600160a01b0319831681178455604051919092169283917f8be0079c531659141344cd1fd0a4f28419497f9722a3daafe3b4186f6b6457e09190a35050565b5f5f604083850312156100fe575f5ffd5b82516001600160a01b0381168114610114575f5ffd5b6020939093015192949293505050565b6080516111b86101515f395f81816101410152818161041901528181610a290152610a7d01526111b85ff3fe608060405234801561000f575f5ffd5b506004361061011c575f3560e01c8063715018a6116100a9578063b96ea12d1161006e578063b96ea12d1461028b578063cf784eda146102ad578063d7a66382146102cc578063f2fde38b146102df578063fd35bd2c146102f2575f5ffd5b8063715018a61461021b57806372212ec7146102235780638da5cb5b14610236578063a42f765b14610246578063adc5f7f614610259575f5ffd5b8063511abc90116100ef578063511abc90146101b057806354d46561146101c3578063551512de146101d657806359e6fd39146101e95780636b5ffb6814610208575f5ffd5b80630a65fb21146101205780633e413bee1461013c5780634038d75b1461017b5780634b5f748a14610190575b5f5ffd5b61012960055481565b6040519081526020015b60405180910390f35b6101637f000000000000000000000000000000000000000000000000000000000000000081565b6040516001600160a01b039091168152602001610133565b61018e610189366004610cac565b610305565b005b6101a361019e366004610cdf565b610492565b6040516101339190610d24565b6101296101be366004610db1565b610582565b61018e6101d1366004610cdf565b6105b7565b61018e6101e4366004610e01565b610653565b6101296101f7366004610cdf565b60036020525f908152604090205481565b61018e610216366004610e31565b610696565b61018e6106ef565b610129610231366004610e6a565b610702565b5f546001600160a01b0316610163565b61018e610254366004610cdf565b610835565b61027b610267366004610ea9565b60046020525f908152604090205460ff1681565b6040519015158152602001610133565b61029e610299366004610cdf565b610842565b60405161013393929190610ec9565b6101296102bb366004610cdf565b5f9081526003602052604090205490565b61018e6102da366004610cdf565b6108f9565b61018e6102ed366004610ea9565b61097a565b61018e610300366004610efb565b6109bc565b335f9081526004602052604090205460ff16610334576040516302c4afe560e01b815260040160405180910390fd5b61033c610ae2565b5f83815260026020526040902060010154600160a01b900460ff1661037457604051637701967760e01b815260040160405180910390fd5b6001600160a01b03821661039b5760405163d92e233d60e01b815260040160405180910390fd5b805f036103bb57604051631f2a200560e01b815260040160405180910390fd5b5f838152600360205260409020548111156103e957604051631e9acf1760e31b815260040160405180910390fd5b5f8381526003602052604081208054839290610406908490610f2f565b9091555061044090506001600160a01b037f0000000000000000000000000000000000000000000000000000000000000000168383610b0c565b816001600160a01b0316837f2745c829e547373f0f4d592a149e99b09d1c01a826191b62744ad7677527de8f8360405161047c91815260200190565b60405180910390a361048d60018055565b505050565b604080516060808201835281525f60208201819052918101919091525f82815260026020526040908190208151606081019092528054829082906104d590610f42565b80601f016020809104026020016040519081016040528092919081815260200182805461050190610f42565b801561054c5780601f106105235761010080835404028352916020019161054c565b820191905f5260205f20905b81548152906001019060200180831161052f57829003601f168201915b5050509183525050600191909101546001600160a01b0381166020830152600160a01b900460ff16151560409091015292915050565b5f83838360405160200161059893929190610f7a565b6040516020818303038152906040528051906020012090509392505050565b5f8181526002602052604090206001015481906001600160a01b031633146105f257604051637c2411e960e01b815260040160405180910390fd5b5f828152600260205260409081902060018101805460ff60a01b1916600160a01b1790559051339184917f4f2d585acf6533f991fbc615106c889cd92460d9616aff7f8eae7330db047e0a9161064791610fa0565b60405180910390a35050565b61065b610b6b565b6001600160a01b0381166106825760405163d92e233d60e01b815260040160405180910390fd5b61048d6001600160a01b0384168284610b0c565b61069e610b6b565b6001600160a01b0382166106c55760405163d92e233d60e01b815260040160405180910390fd5b6001600160a01b03919091165f908152600460205260409020805460ff1916911515919091179055565b6106f7610b6b565b6107005f610b97565b565b5f5f61070f848433610582565b5f818152600260205260409020600101549091506001600160a01b03161561074a57604051632d8306b960e21b815260040160405180910390fd5b604051806060016040528085858080601f0160208091040260200160405190810160405280939291908181526020018383808284375f9201829052509385525050336020808501919091526001604094850152858352600290525020815181906107b49082611086565b506020820151600190910180546040938401511515600160a01b026001600160a81b03199091166001600160a01b039093169290921791909117905551339082907f4f2d585acf6533f991fbc615106c889cd92460d9616aff7f8eae7330db047e0a906108249088908890611141565b60405180910390a390505b92915050565b61083d610b6b565b600555565b60026020525f908152604090208054819061085c90610f42565b80601f016020809104026020016040519081016040528092919081815260200182805461088890610f42565b80156108d35780601f106108aa576101008083540402835291602001916108d3565b820191905f5260205f20905b8154815290600101906020018083116108b657829003601f168201915b505050600190930154919250506001600160a01b0381169060ff600160a01b9091041683565b5f8181526002602052604090206001015481906001600160a01b0316331461093457604051637c2411e960e01b815260040160405180910390fd5b5f82815260026020526040808220600101805460ff60a01b191690555183917fbe4cc6976ef5745c44c433bcf2459cf5d46ca06a0c07fcea3f7df922f43a8bef91a25050565b610982610b6b565b6001600160a01b0381166109b057604051631e4fbdf760e01b81525f60048201526024015b60405180910390fd5b6109b981610b97565b50565b6109c4610ae2565b5f82815260026020526040902060010154600160a01b900460ff166109fc57604051637701967760e01b815260040160405180910390fd5b805f03610a1c57604051631f2a200560e01b815260040160405180910390fd5b610a516001600160a01b037f000000000000000000000000000000000000000000000000000000000000000016333084610be6565b5f8281526003602052604081208054839290610a6e90849061116f565b909155505060405181815233907f00000000000000000000000000000000000000000000000000000000000000006001600160a01b03169084907f24d18ddae2b72e30d95fd1034c4c2c6a368d0aeaa28e31c7d3af47b1ad58276d9060200160405180910390a4610ade60018055565b5050565b600260015403610b0557604051633ee5aeb560e01b815260040160405180910390fd5b6002600155565b6040516001600160a01b0383811660248301526044820183905261048d91859182169063a9059cbb906064015b604051602081830303815290604052915060e01b6020820180516001600160e01b038381831617835250505050610c25565b5f546001600160a01b031633146107005760405163118cdaa760e01b81523360048201526024016109a7565b5f80546001600160a01b038381166001600160a01b0319831681178455604051919092169283917f8be0079c531659141344cd1fd0a4f28419497f9722a3daafe3b4186f6b6457e09190a35050565b6040516001600160a01b038481166024830152838116604483015260648201839052610c1f9186918216906323b872dd90608401610b39565b50505050565b5f5f60205f8451602086015f885af180610c44576040513d5f823e3d81fd5b50505f513d91508115610c5b578060011415610c68565b6001600160a01b0384163b155b15610c1f57604051635274afe760e01b81526001600160a01b03851660048201526024016109a7565b80356001600160a01b0381168114610ca7575f5ffd5b919050565b5f5f5f60608486031215610cbe575f5ffd5b83359250610cce60208501610c91565b929592945050506040919091013590565b5f60208284031215610cef575f5ffd5b5035919050565b5f81518084528060208401602086015e5f602082860101526020601f19601f83011685010191505092915050565b602081525f825160606020840152610d3f6080840182610cf6565b60208501516001600160a01b03166040858101919091529094015115156060909301929092525090919050565b5f5f83601f840112610d7c575f5ffd5b50813567ffffffffffffffff811115610d93575f5ffd5b602083019150836020828501011115610daa575f5ffd5b9250929050565b5f5f5f60408486031215610dc3575f5ffd5b833567ffffffffffffffff811115610dd9575f5ffd5b610de586828701610d6c565b9094509250610df8905060208501610c91565b90509250925092565b5f5f5f60608486031215610e13575f5ffd5b610e1c84610c91565b925060208401359150610df860408501610c91565b5f5f60408385031215610e42575f5ffd5b610e4b83610c91565b915060208301358015158114610e5f575f5ffd5b809150509250929050565b5f5f60208385031215610e7b575f5ffd5b823567ffffffffffffffff811115610e91575f5ffd5b610e9d85828601610d6c565b90969095509350505050565b5f60208284031215610eb9575f5ffd5b610ec282610c91565b9392505050565b606081525f610edb6060830186610cf6565b6001600160a01b0394909416602083015250901515604090910152919050565b5f5f60408385031215610f0c575f5ffd5b50508035926020909101359150565b634e487b7160e01b5f52601160045260245ffd5b8181038181111561082f5761082f610f1b565b600181811c90821680610f5657607f821691505b602082108103610f7457634e487b7160e01b5f52602260045260245ffd5b50919050565b8284823760609190911b6bffffffffffffffffffffffff19169101908152601401919050565b602081525f5f8354610fb181610f42565b806020860152600182165f8114610fcf5760018114610feb5761101c565b60ff1983166040870152604082151560051b870101935061101c565b865f5260205f205f5b8381101561101357815488820160400152600190910190602001610ff4565b87016040019450505b509195945050505050565b634e487b7160e01b5f52604160045260245ffd5b601f82111561048d57805f5260205f20601f840160051c810160208510156110605750805b601f840160051c820191505b8181101561107f575f815560010161106c565b5050505050565b815167ffffffffffffffff8111156110a0576110a0611027565b6110b4816110ae8454610f42565b8461103b565b6020601f8211600181146110e6575f83156110cf5750848201515b5f19600385901b1c1916600184901b17845561107f565b5f84815260208120601f198516915b8281101561111557878501518255602094850194600190920191016110f5565b508482101561113257868401515f19600387901b60f8161c191681555b50505050600190811b01905550565b60208152816020820152818360408301375f818301604090810191909152601f909201601f19160101919050565b8082018082111561082f5761082f610f1b56fea26469706673582212204095812ab6ad057eea5c897785cf5c070970c6f3c8e1e86a24f80fa2bf19cfbf64736f6c634300081c0033",
  "linkReferences": {},
  "deployedLinkReferences": {},
  "immutableReferences": {
    "912": [
      {
        "length": 32,
        "start": 321
      },
      {
        "length": 32,
        "start": 1049
      },
      {
        "length": 32,
        "start": 2601
      },
      {
        "length": 32,
        "start": 2685
      }
    ]
  },
  "inputSourceName": "project/contracts/GitStreamReceiver.sol",
  "buildInfoId": "solc-0_8_28-724e08dcc4002277a8c669be54a707e4b85cdf68"
}